:020000040800F2
:100000006007002001010008BD130008ED0700088B
:100010004911000823040008B32400080000000070
:10002000000000000000000000000000CD1C0008DF
:100030002704000800000000311A00087D1E000897
:100040001B0100081B0100081B0100081B01000820
:100050001B0100081B0100081B0100081B01000810
:100060001B0100081B0100081B0100081B01000800
:100070001B0100081B0100081B0100081B010008F0
:100080001B0100081B0100081B0100081B010008E0
:100090001B0100081B0100081B0100081B010008D0
:1000A0001B0100081B0100081B0100081B010008C0
:1000B0001B0100081B0100081B0100081B010008B0
:1000C0001B0100081B0100081B0100081B010008A0
:1000D0001B010008392200081B0100081B01000851
:1000E0001B0100081B0100081B010008DFF80CD0F1
:1000F00000F022F900480047652C00086007002046
:100100000648804706480047FEE7FEE7FEE7FEE7B1
:10011000FEE7FEE7FEE7FEE7FEE7FEE7811E0008DA
:10012000ED00000880EA010210B502F00043400033
:1001300022D04A001FD0010E01EB1261C0F356001D
:10014000C2F3560240F4000042F40002A0FB022079
:1001500000047F39140400D0401C50EA124001D43E
:100160004000491EC2B20C0604EBD010401C4008EF
:10017000802A02D003E0002010BD20F001000029F9
:1001800000DA0020184310BD30B480EA010202F00A
:10019000004530F0004221F0004013D090B1C30D73
:1001A000D40DC2F31601C0F31600E41A41F40001A5
:1001B00040F400027D34914201D3641C00E0490008
:1001C000002C02DA30BC002070474FF400000023FE
:1001D000914201D3891A034340084FEA4101F7D104
:1001E00051B1914202D14FF0004105E002D24FF0EF
:1001F000010101E06FF0010103EBC450284430BC61
:1002000000F063B896230022114600F067B800F0B2
:10021000004220F00040C10DC0F3160040F4000081
:100220007F2901DA00207047962903DCC1F196018D
:10023000C84001E096398840002AF4D04042704717
:10024000002801DBC0F10040002901DBC1F10041C1
:1002500081427047002801DBC0F10040002901DB2A
:10026000C1F10041884270472DE9F05F054600204A
:1002700092469B4688460646814640241BE0284617
:1002800041464746224600F078F853465A46C01A7F
:10029000914110D311461846224600F05FF82D1AFE
:1002A00067EB01084F4622460120002100F056F876
:1002B00017EB00094E41201EA4F10104DFDC484683
:1002C00031462A464346BDE8F09F0029A8BF704743
:1002D000401C490008BF20F00100704710B4B0FA7C
:1002E00080FC00FA0CF050EA010404BF10BC704717
:1002F00049B1CCF1200421FA04F411FA0CF118BF31
:10030000012121430843A3EB0C01CB1D4FEA0061FF
:100310004FEA102042BF002010BC704700EBC350D2
:1003200010440029A4BF10BC7047401C490008BFFE
:1003300020F0010010BC7047064C074D06E0E06855
:1003400040F0010394E8070098471034AC42F6D31C
:10035000FFF7D0FE1C4D00083C4D0008202A04DBAE
:10036000203A00FA02F1002070479140C2F12003C8
:1003700020FA03F3194390407047202A04DB203A07
:1003800021FA02F00021704721FA02F3D040C2F1B5
:100390002002914008431946704710B5044602F008
:1003A00013FC462002F0E2FB02F03AFC012800D1E7
:1003B00010BD204602F0DAFB02F032FC012801D128
:1003C0000220F5E702F01AFC0020F1E710B500F07A
:1003D0000FFA00F004F81020FFF7DFFF10BD10B592
:1003E0000120FFF7DAFF10BD10B5002402F0ECFB8E
:1003F000472002F0BBFB02F013FC012801D10020D2
:1004000010BD02F08FFB044602F042FB02F08AFBB3
:1004100000EB042084B202F06DFB02F0EFFB2046FB
:10042000EEE700BFFEE7704710B56FF0040001F083
:1004300011FD0A4800680A49B0FBF1F0094908704B
:100440000846007800EB4001C1EBC0104FF6FF7189
:1004500001EAC0000449088010BD0000100000201F
:1004600000127A00580000205A0000200146114A6C
:1004700012884A434FF0E0235A6100229A611A46DB
:10048000126942F001021A6100BF4FF0E0221069C8
:1004900000F001021AB100F48032002AF5D04FF0CA
:1004A000E022126922F001024FF0E0231A610022DB
:1004B0009A6170475A00002030B5044604254FF475
:1004C000302000F083F80546042D17D10C48006950
:1004D00040F002000A49086108464461006940F0A2
:1004E000400008614FF4302000F070F805460448E1
:1004F000006941F6FD71084001490861284630BD98
:100500000020024004200B49C96801F0010109B133
:1005100001200EE00749C96801F0040109B1022079
:1005200007E00449C96801F0100109B1032000E0A7
:1005300004207047002002400348006940F080001A
:1005400001490861704700000020024070B5044670
:100550000D460426F00200F039F80646042E11D1AB
:100560000948006940F00100074908612580F00250
:1005700000F02CF806460448006941F6FE71084078
:1005800001490861304670BD0020024001460888DC
:10059000704730B503460C461546002207E003EBD2
:1005A0004200FFF7F3FF24F81200501C82B2AA4267
:1005B000F5DB30BD02480349486003484860704796
:1005C0002301674500200240AB89EFCD00B502460C
:1005D0000423FFF797FF034603E0FFF793FF03466B
:1005E000521E012B01D1002AF7D102B9052318466A
:1005F00000BD00002DE9F047054688461646B5F1D6
:10060000006F04D305EB46001049884201D3BDE8D2
:10061000F087FFF7CFFFA5F100694FEA99274FF068
:10062000006000EB872A5046FFF746FF002407E0F2
:1006300038F8141005EB4400FFF788FF601C84B203
:10064000B442F5DBFFF778FF00BFE0E700000108E8
:100650002DE9F04102460025002600200023002459
:10066000002791F803C00CF00F0591F803C00CF0BF
:10067000100CBCF1000F03D091F802C04CEA050544
:1006800091F800C0BCF1000F31D0146800202BE0BD
:100690004FF0010C0CFA00F3B1F800C00CEA0306AD
:1006A0009E4220D183004FF00F0C0CFA03F7BC439D
:1006B00005FA03FC4CEA040491F803C0BCF1280FCE
:1006C00006D14FF0010C0CFA00FCC2F814C00AE08D
:1006D00091F803C0BCF1480F05D14FF0010C0CFAA2
:1006E00000FCC2F810C0401C0828D1D31460B1F837
:1006F00000C0BCF1FF0F34DD546800202EE000F193
:10070000080C4FF0010808FA0CF3B1F800C00CEA2D
:1007100003069E4221D183004FF00F0C0CFA03F721
:10072000BC4305FA03FC4CEA040491F803C0BCF195
:10073000280F05D100F1080C08FA0CF8C2F8148053
:1007400091F803C0BCF1480F07D100F1080C4FF03D
:10075000010808FA0CF8C2F81080401C0828CED313
:100760005460BDE8F0810246002093680B400BB155
:10077000012000E00020704741617047016170472F
:1007800008B50121142001F055F948208DF8030027
:100790004FF44040ADF8000003208DF80200694698
:1007A0001048FFF755FF48208DF803000320ADF8EF
:1007B00000008DF8020069460B48FFF749FF102042
:1007C0008DF803004002ADF8000003208DF8020010
:1007D00069460448FFF73CFF4FF400510148FFF71A
:1007E000CDFF08BD001001400008014000BFFEE73A
:1007F00008B50121082001F01DF94FF44060ADF863
:10080000000003208DF8020014208DF803006946D3
:100810000248FFF71DFF02F0F1F908BD000C01408E
:1008200010B5044614B101202E4908702D480078F7
:10083000002839D04FF480412B48FFF794FF78B15E
:100840004FF400412848FFF78EFF48B101212748A7
:10085000FFF789FF20B102212448FFF784FF18BB6E
:100860001E20FFF703FE00201E4908704FF4804150
:100870001D48FFF778FF08B9012010BD4FF4004173
:100880001948FFF770FF08B90220F6E70121174861
:10089000FFF769FF08B90320EFE702211348FFF7CC
:1008A00062FFE0B90420E8E74FF480410E48FFF70B
:1008B0005AFF012813D1C1030B48FFF754FF012849
:1008C0000DD101210948FFF74EFF012807D1022170
:1008D0000648FFF748FF012801D1024908700020AF
:1008E000CBE7000038000020001001400008014064
:1008F00070B5FFF779FD0646FFF784FC054604490D
:10090000FFF742FC04464FF07E51FFF70BFC70BD31
:10091000CDCC8C3FF8B500250126002400F088FDE1
:1009200010239FA20021184600F0C0FF1023A0A2B0
:100930000621002000F0BAFF1023A0A20321062008
:1009400000F07AFF4FF4FF729E499F48FFF721FEA7
:100950009C4800880B2806D110239CA206214E201B
:1009600000F0A4FF09E097480088162805D110235D
:1009700098A206214E2000F099FF002097490870A8
:100980000AE1974997480068FFF764FC05D3964948
:1009900094480068FFF754FC05D24FF4FF72894970
:1009A0008948FFF7F6FD0A2095FBF0F100FB115096
:1009B000A0B9462002F088F818B9FFF799FF8949D5
:1009C000086088480068FFF722FC074610200323D0
:1009D0003A46194600902D2000F0F6FE0A20FFF757
:1009E00045FD681CC5B2322D09D100257D4800683F
:1009F000FFF70DFC074639467CA001F0CDFD784994
:100A000078480068FFF726FC59D27C480078012816
:100A100055D16C480088162851D100F009FD0020FE
:100A20006E49087010235EA20021184600F03EFFB8
:100A300010235FA20621002000F038FF102370A2CF
:100A400006214E2000F032FF10236FA20321062062
:100A500000F0F2FE0121084602F060F910235BA2CB
:100A600006214E2000F022FF0B206B490880022255
:100A70005548FFF7BFFD00F0DBFC102348A2002122
:100A8000184600F013FF102349A20621002000F0B1
:100A90000DFF102349A20321062000F0CDFE1023F4
:100AA0004AA206214E2000F001FF01204B490870A8
:100AB0000020524908700120584908705DE04A49F9
:100AC00048480068FFF7BCFB57D25448007801281B
:100AD00053D13C4800880B284FD100F0A9FC0020DE
:100AE0003E49087010232EA20021184600F0DEFEB9
:100AF00010232FA20621002000F0D8FE102348A2C8
:100B000006214E2000F0D2FE102347A2032106202A
:100B100000F092FE0221012002F000F910232DA224
:100B200006214E2000F0C2FE16203B49088002221A
:100B30002548FFF75FFD00F07BFC102318A2002181
:100B4000184600F0B3FE102319A20621002000F081
:100B5000ADFE102319A20321062000F06DFE102324
:100B60001CA206214E2000F0A1FE01201B490870A6
:100B7000224908700020294908700020FFF750FE24
:100B80000446012C08D0022C06D0032C04D0042CDF
:100B900002D1002600F04CFC002E7FF4F2AEF8BD2E
:100BA000B9E2D5D5D6C7C4DCC4A3CABD00000000D5
:100BB000B4B0C1B1D7B4CCAC3A0000004C75783AAF
:100BC000200000006001002000C00008D2D1B4F273
:100BD000BFAA0000D2D1B9D8B1D50000570000207B
:100BE00000009643080000200000A0427B4C69678B
:100BF00068743A25647D0D0A000000003900002069
:100C0000B4F2BFAAD6D000003C3C3C3C3C204F4E46
:100C1000203E3E3E3E3E00000C0000203A000020F8
:100C2000B9D8B1D5D6D000003E3E3E3E3E204F461C
:100C300046203C3C3C3C3C0038B50125002400F0FB
:100C4000F7FB102397A20021184600F02FFE102377
:100C500098A20621002000F029FE102398A203216B
:100C6000002000F0E9FD4FF4FF7298499848FFF723
:100C700090FC964800880B2806D1102395A20621E7
:100C80004E2000F013FE09E090480088162805D198
:100C9000102392A206214E2000F008FE0120914967
:100CA0000870FAE001F0A8FA8F48C07828B14FF434
:100CB000FF7286498648FFF76CFC8B48C078412854
:100CC0006BD18A480078012867D1804800881628AF
:100CD00063D100F0ADFB002082490870102371A29F
:100CE0000021184600F0E2FD102372A20621002028
:100CF00000F0DCFD10237EA206214E2000F0D6FD80
:100D000010237DA20321062000F096FD0121084654
:100D100002F004F810236FA206214E2000F0C6FD59
:100D20000B207949088002226948FFF763FC00F034
:100D30007FFB10235BA20021184600F0B7FD1023B3
:100D40005CA20621002000F0B1FD10235CA203216B
:100D5000002000F071FD10236CA20321502000F050
:100D60006BFD102000906048C278012303216020B1
:100D700000F02AFD102357A206214E2000F096FD18
:100D800000205949C8700120564908700020574971
:100D9000087001205F4908706DE05348C078422810
:100DA00069D15C480078012865D1484800880B2843
:100DB00061D100F03DFB00204A490870102339A2A0
:100DC0000021184600F072FD10233AA206210020EF
:100DD00000F06CFD102350A206214E2000F066FDAD
:100DE00010234FA20321062000F026FD022101203E
:100DF00001F094FF102339A206214E2000F056FD89
:100E000016204149088002223148FFF7F3FB00F029
:100E10000FFB102323A20021184600F047FD1023EA
:100E200024A20621002000F041FD102324A203216A
:100E3000002000F001FD102334A20321502000F017
:100E4000FBFC102000902848C27801230321602079
:100E500000F0BAFC102321A206214E2000F026FD4E
:100E600000202149C87001201E4908701F490870E0
:100E70000020284908700020FFF7D2FC0446012C0E
:100E80000BD0022C09D0032C07D0042C05D1002054
:100E900014490870002500F0CBFA002D7FF402AF52
:100EA00038BD0000D4B6B3CCBFD8D6C6C4A3CABD23
:100EB00000000000B4B0C1B1D7B4CCAC3A0000001F
:100EC00041505020646174613A00000060010020CC
:100ED00000C00008D2D1B4F2BFAA0000D2D1B9D864
:100EE000B1D50000570000204E000020390000203E
:100EF000B4F2BFAAD6D000003C3C3C3C3C204F4E54
:100F0000203E3E3E3E3E00000C0000203078303057
:100F1000000000003A000020B9D8B1D5D6D00000BA
:100F20003E3E3E3E3E204F4646203C3C3C3C3C0044
:100F300070B50125002400F07BFA102361A2002186
:100F4000184600F0B3FC102362A20621002000F036
:100F5000ADFC102362A20321062000F06DFC4FF4CB
:100F6000FF7263496348FFF714FB614800880B2850
:100F700006D1102360A206214E2000F097FC09E064
:100F80005B480088162805D110235DA206214E205B
:100F900000F08CFC00205C4908708FE0012C01D02F
:100FA000022C05D14FF4FF7251495248FFF7F1FA74
:100FB0000020FFF735FC0446012C39D15348007856
:100FC000012835D14A480088162831D100F030FA7E
:100FD00010233CA20021184600F068FC10233DA21B
:100FE0000621002000F062FC102349A206214E20B9
:100FF00000F05CFC102348A20321062000F01CFC3A
:101000000121084601F08AFE10233BA206214E2052
:1010100000F04CFC0B204449088002223548FFF7C1
:10102000E9FA00203949087001204049087045E07C
:10103000022C39D13D480078012835D12C48008850
:101040000B2831D100F0F4F910231EA2002118461C
:1010500000F02CFC10231FA20621002000F026FC2B
:10106000102333A206214E2000F020FC102332A2D0
:101070000321062000F0E0FB0221012001F04EFEDA
:1010800010231FA206214E2000F010FC1620264936
:10109000088002221748FFF7ADFA01201B490870AB
:1010A00000202249087009E0032C07D0042C05D148
:1010B000002501201449087000F0BAF9002D7FF4D2
:1010C0006DAF70BDCAD6B6AFBFD8D6C6C4A3CABDB1
:1010D00000000000B4B0C1B1D7B4CCAC3A000000FD
:1010E0004B31204F4E202020204B32204F464600CF
:1010F0006001002000C00008D2D1B4F2BFAA0000F5
:10110000D2D1B9D8B1D50000570000203900002055
:10111000B4F2BFAAD6D000003C3C3C3C3C204F4E31
:10112000203E3E3E3E3E00000C0000203A000020E3
:10113000B9D8B1D5D6D000003E3E3E3E3E204F4607
:1011400046203C3C3C3C3C0000BFFEE710B504465A
:10115000062C13D2DFE804F0120306090C0FFFF788
:10116000E7FE0CE0FFF7D6FB09E001F0A5F906E089
:10117000FFF762FD03E000F0CDFE00BF00BF00BF3F
:1011800010BD000070B50125002400F051F90021C8
:101190002E2000F009FC49E00020FFF741FB044647
:1011A000012C05D123480078401C224908700DE02D
:1011B000022C05D11F480078401E1E49087005E02A
:1011C000032C03D11B480078FFF7C0FF19480078B3
:1011D000052802DD0120174908701648007801280B
:1011E00002DA0520134908701248007800F03EF832
:1011F000042C1BD100F01CF910230FA200210C209D
:1012000000F01AFB102310A20321002000F04EFB77
:10121000102312A20621002000F00EFB00212F2037
:1012200000F0C2FB0025012002490870002DB3D157
:1012300070BD000006000020536D6172742043757C
:10124000727461696E000000D6C7C4DCB4B0C1B16D
:10125000BFD8D6C6CFB5CDB3000000004B3120506B
:1012600069636B206D6F64650000000010B5044673
:10127000062C63D2DFE804F0620316293C4F1023EA
:1012800030A20121184600F011FB102331A20421E5
:10129000002000F0D1FA102333A20621002000F034
:1012A000CBFA4CE0102335A20121184600F0FEFADB
:1012B000102328A20421002000F0BEFA10232AA245
:1012C0000621002000F0B8FA39E010232FA20121F6
:1012D000184600F0EBFA10231EA20421002000F0B3
:1012E000ABFA102320A20621002000F0A5FA26E088
:1012F00010232AA20121184600F0D8FA102315A2C3
:101300000421002000F098FA102317A206210020E3
:1013100000F092FA13E0102324A20121184600F0F5
:10132000C5FA10230BA20421002000F085FA102337
:101330000DA20621002000F07FFA00E000BF00BFF0
:1013400010BD0000CAD6B6AFBFD8D6C6C4A3CABDAA
:1013500000000000204B33204F4E202020204B3433
:10136000204F4646000000003C3C2D204B31202001
:1013700020204B32202D3E3E00000000B9E2D5D5A2
:10138000D6C7C4DCC4A3CABD00000000D3EFD2F4AA
:10139000D6C7C4DCC4A3CABD00000000D4B6B3CC19
:1013A000BFD8D6C6C4A3CABD00000000CFB5CDB318
:1013B000C9E8D6C3C4A3CABD00000000704700003E
:1013C00070B5002100230F22C47804B3154C2468A3
:1013D00004F4E064C4F5E064210AC1F10403CA40E6
:1013E000447804FA03F184781440214309010E4C37
:1013F0000678A155047804F01F050124AC40057857
:101400006D11AD0005F1E025C5F8004109E0047853
:1014100004F01F050124AC40044D0678761145F810
:10142000264070BD0CED00E000E400E080E100E04B
:1014300070B5002419E004F1B001C8B2002100F039
:10144000B3FA0021022000F0AFFA0021102000F0D2
:10145000ABFA002505E00121002000F0A5FA681C88
:10146000C5B2802DF7DB601CC4B2082CE3DB70BD75
:101470002DE9F047804689461646002700240025BE
:10148000A2464FF0A10A00BF32E005EB05101B4950
:1014900011F810003178884228D105EB0510174962
:1014A00001EB40004078717888421FD100241AE097
:1014B00009EB0402D1B208F0FF0000F039F900276F
:1014C0000DE005EB05110D4A02EB4101891C07EB0C
:1014D0000412885C012100F067FA781CC7B2102F53
:1014E000EFDB601CC4B2022CE2DB03E0681C85B2B7
:1014F0005545CADB00BFBDE8F0870000B2350008E3
:101500002DE9F0478046894616460027002400252D
:10151000A2464FF0040A00BF32E005EB05101B495C
:1015200011F810003178884228D105EB05101749D1
:1015300001EB40004078717888421FD100241AE006
:1015400009EB0402D1B208F0FF0000F0F1F8002727
:101550000DE005EB85110E4A02EB4101891C07EBFA
:101560004412885C012100F01FFA781CC7B2202FBA
:10157000EFDB601CC4B2042CE2DB03E0681C85B224
:101580005545CADB00BFBDE8F0870000B235000852
:10159000144B000808B501210C2000F04BFA4FF461
:1015A0003040ADF8000010208DF8030003208DF8C6
:1015B000020069460D48FFF74BF84FF41060ADF894
:1015C000000010208DF8030003208DF8020069460A
:1015D0000748FFF73DF84FF430410448FFF7CEF8D5
:1015E0004FF410610248FFF7C9F808BD000C014034
:1015F0000008014010B5FFF7CDFF4FF480514B4874
:10160000FFF7BCF86420FEF731FF4FF480514748E4
:10161000FFF7B2F8C820FEF729FF4FF48051434886
:10162000FFF7ACF80021AE2000F0BEF90021022047
:1016300000F0BAF90021102000F0B6F90021402096
:1016400000F0B2F90021812000F0AEF90021CF2096
:1016500000F0AAF90021A12000F0A6F90021C8207D
:1016600000F0A2F90021A62000F09EF90021A82098
:1016700000F09AF900213F2000F096F90021812026
:1016800000F092F90021FF2000F08EF90021D32014
:1016900000F08AF90021084600F086F90021D520E3
:1016A00000F082F90021802000F07EF90021D9208D
:1016B00000F07AF90021F12000F076F90021DA201B
:1016C00000F072F90021122000F06EF90021DB20F9
:1016D00000F06AF90021402000F066F90021202086
:1016E00000F062F90021022000F05EF900218D2057
:1016F00000F05AF90021142000F056F90021A4202E
:1017000000F052F90021A62000F04EF90021AF2090
:1017100000F04AF90021AF2000F046F9FFF788FEFB
:101720000021084600F004F810BD0000000C014044
:1017300070B504460D4605F1B001C8B2002100F0B5
:1017400033F9102141EA1410002100F02DF904F0C2
:101750000F00002100F028F970BD00002DE9F047CE
:101760008046894616461C4600250027102C00D0CE
:101770001024A6F12000C6B200251AE009EB0502EC
:10178000D1B208F0FF00FFF7D3FF00270AE00D49B0
:1017900001EB061107EBC502885C012100F004F99A
:1017A000781CC7B204EBD471B7EB610FEFDB681C98
:1017B000C5B2E11704EB5171B5EBE10FDEDBBDE81B
:1017C000F0870000702D00082DE9F04786B007462D
:1017D000884691461D460E9E00200490059001907B
:1017E000029003900024202D02DD06B0BDE8F087B2
:1017F0002A460FA104A800F0DFFE4A4604A901A86A
:1018000000F0DAFE0EE0B24606EBDA71491001FB99
:10181000047188B201A90A5D33464146FFF79EFF75
:10182000601CC4B201A8005D0028ECD100BFDCE759
:1018300025252564640000002DE9F04106460F4689
:1018400015461C462AE004EBD4714910C1F1800111
:10185000B1420DDA00262146E21704EB527207EB83
:10186000E200C21700EB5272D210A0EBC20297B294
:10187000E11704EB5171C910C1F10801B94200DA56
:1018800000272A78234639463046FFF767FF20466F
:1018900004EBD07106EB61018EB26D1C28787E28B6
:1018A00002DC28782028CEDABDE8F0812DE9F04767
:1018B00006460F4615461C46B0464FF00009202C40
:1018C00000D010246BE0B9F1000F39D104EBD471D2
:1018D0004910C1F18001B1420DDA00262146E2171C
:1018E00004EB527207EBE200C21700EB5272D21007
:1018F000A0EBC20297B2E11704EB5171C910C1F11C
:101900000801B94200DA00272878802802DD4FF06C
:10191000010944E028780D2804D1381987B24646D9
:101920006D1C0BE02A78234639463046FFF716FF38
:10193000204604EBD07106EB61018EB26D1C2EE0E7
:10194000C4F18000B0420DDA00262146E21704EB14
:10195000527207EBE200C21700EB5272D210A0EBFA
:10196000C20297B2E11704EB5171C910C1F108012D
:10197000B94200DA00274FF00009202C05D12A4691
:1019800039463046FFF7BCFD06E0102C04D12A464C
:1019900039463046FFF76CFDAD1C301986B2287809
:1019A000002890D1BDE8F08770B504460D460026AA
:1019B0002DB14FF480711C48FEF7E0FE04E04FF4B7
:1019C00080711948FEF7D8FE4FF400611648FEF703
:1019D000D3FE00261BE04FF400511448FEF7CCFE66
:1019E00004F0800028B14FF400411048FEF7C6FE15
:1019F00004E04FF400410D48FEF7BEFE4FF40051E5
:101A00000A48FEF7BBFE6006040E701CC6B2082E24
:101A1000E1DB4FF400610448FEF7B0FE4FF4807143
:101A20000148FEF7ABFE70BD00080140000C01400C
:101A30007047000029B1064A92690243044B9A613B
:101A400004E0034A92698243014B9A6170470000A7
:101A50000010024030B500210022002400232D4D4B
:101A60006D6805F00C0121B1042905D0082923D1A6
:101A700005E0294D056022E0274D05601FE0254D5A
:101A80006D6805F47012234D6D6805F480340225ED
:101A900005EB92421CB9214D554305600BE01D4DED
:101AA0006D6805F400351DB11C4D5543056002E01D
:101AB000194D5543056002E0174D056000BF00BF9A
:101AC000144D6D6805F0F0010909154D6B5C056852
:101AD000DD4045600F4D6D6805F4E061090A104D69
:101AE0006B5C4568DD4085600A4D6D6805F46051AA
:101AF000C90A0B4D6B5C4568DD40C560054D6D68DE
:101B000005F44041890B074D6B5CC568B5FBF3F5E7
:101B1000056130BD0010024000127A0000093D004E
:101B2000240000203400002038B5012500240B20BB
:101B30000090FFF77DFC10234AA201210620FFF749
:101B4000B5FE10234BA204210020FFF775FE4FF4D1
:101B5000FF724C494C48FEF71CFD7DE00020FEF76B
:101B60005FFE0446012C77D0022C40D1FFF760FCC9
:101B7000102346A203210820FFF798FE4FF47A7045
:101B8000FEF774FC4FF47A70FEF770FC4FF47A7035
:101B9000FEF76CFC022269463B48FEF72BFDFFF77F
:101BA00047FC10233DA203211820FFF77FFE4FF4CE
:101BB0007A70FEF75BFC4FF47A70FEF757FC4FF437
:101BC0007A70FEF753FC102337A2384801780020C2
:101BD000FFF76CFE102336A200212020FFF766FEDF
:101BE000102336A203211420FFF760FE37E0032CF8
:101BF00018D10025FFF71CFCFFF71AFC10232AA2BE
:101C00002A4801780020FFF751FE102328A2002166
:101C10002020FFF74BFE102328A203211420FFF7FA
:101C200045FE19E0042C17D10025FFF701FCFFF752
:101C3000FFFB10231CA21D4801780020FFF736FE91
:101C400010231BA200212020FFF730FE10231BA22F
:101C500003211420FFF72AFE002D7FF47FAF00BF81
:101C600038BD0000CAC7B7F1D2AAD6D8D6C3CFB5FF
:101C7000CDB33F00796573206B32202020206E6F3A
:101C8000206B33006001002000C00008CFB5CDB349
:101C9000D5FDD4DAD6D8D6C3D6D00000CFB5CDB3D3
:101CA000D2D1D6D8D6C30000A1FA00003B00002054
:101CB000CFB5CDB3C9E8D6C300000000D6D8D6C38F
:101CC000B4B0C1B1D7B4CCAC000000007047000084
:101CD00010B5044604F0010020B120211748FEF79A
:101CE0004DFD03E020211548FEF746FD04F00200FB
:101CF00020B140211148FEF741FD03E040210F488B
:101D0000FEF73AFD04F0040020B180210B48FEF7F5
:101D100035FD03E080210948FEF72EFD04F00800A0
:101D200028B14FF480710548FEF728FD04E04FF418
:101D300080710248FEF720FD10BD0000000C01403C
:101D400010B500F001F810BD0CB500200190009016
:101D50003348006840F480303149086000BF3048A3
:101D6000006800F4003000900198401C0190009839
:101D700018B90198B0F5A06FF1D12948006800F4B6
:101D8000003010B10120009001E000200090009888
:101D9000012843D12348006840F010002149086021
:101DA0000846006820F0030008600846006840F01C
:101DB000020008601A4840681949486008464068AF
:101DC00048600846406840F48060486008464068C3
:101DD00020F47C1048600846406840F4E8104860F1
:101DE0000846006840F08070086000BF0C4800683A
:101DF00000F000700028F9D00948406820F0030086
:101E0000074948600846406840F00200486000BF4B
:101E10000348406800F00C000828F9D10CBD000010
:101E2000001002400020024008B501210820FFF701
:101E300001FE10208DF8030003208DF802004FF4FE
:101E4000F070ADF8000069460148FEF701FC08BDDE
:101E5000000C0140042808D14FF0E021096941F04D
:101E600004014FF0E022116107E04FF0E021096921
:101E700021F004014FF0E02211617047704700002B
:101E800010B51348006840F0010011490860084689
:101E90004068104908400E494860084600680E49ED
:101EA00008400B4908600846006820F4802008605C
:101EB0000846406820F4FE0048604FF41F00886028
:101EC000FFF73EFF4FF000600449086010BD0000BE
:101ED000001002400000FFF8FFFFF6FE08ED00E0F2
:101EE00010B50446092C0ED004DC032C07D0062CB8
:101EF0000BD107E00C2C07D00F2C06D106E0FFF722
:101F000013FE04E003E002E001E000BF00BF00BFF9
:101F100010BD000070B5012600240025FFF788FAE7
:101F2000102347A200212020FFF7C0FC102347A266
:101F300003211420FFF7BAFC4FF4FF7247494848C9
:101F4000FEF727FB454800880B2806D1102345A241
:101F500006214E20FFF7AAFC09E040480088162819
:101F600005D1102341A206214E20FFF79FFC64E01B
:101F70000020FEF755FC0446012C0CD101253D48FC
:101F80000078C01C3B4908700846007809281DDB12
:101F9000032008701AE0022C0CD101253548007886
:101FA000C01E344908700846007800280EDC062060
:101FB00008700BE0032C04D12E480078FFF790FF47
:101FC00004E0042C02D10026FFF732FA29480078F9
:101FD000032817D1B5B10025FFF72AFA102326A24E
:101FE000244801780020FFF761FC102314A200218F
:101FF0002020FFF75BFC102314A203211420FFF71D
:1020000055FC1AE01B480078062816D1ADB1002512
:10201000FFF70EFA102318A2164801780020FFF7E8
:1020200045FC102306A200212020FFF73FFC1023CF
:1020300006A203211420FFF739FC002E98D170BDB1
:10204000CFB5CDB3C9E8D6C300000000D6D8D6C3FB
:10205000CFB5CDB3D7B4CCAC0000000060010020F8
:1020600000C00008D2D1B4F2BFAA0000D2D1B9D8C2
:10207000B1D500003B000020A1FA000010B51023EC
:1020800008A200210C20FFF7D7FB102309A203218F
:102090000020FFF70BFC10230BA206210020FFF706
:1020A000CBFB10BD536D617274204375727461690E
:1020B0006E000000D6C7C4DCB4B0C1B1BFD8D6C66C
:1020C000CFB5CDB3000000004B31205069636B20C9
:1020D0006D6F64650000000010B5FFF7A9F90021DD
:1020E0002E20FFF761FCFFF7C9FF10BD10B5FFF709
:1020F0009FF910230AA200210C20FFF79DFB10235B
:102100000BA203210020FFF7D1FB10230DA2062113
:102110000020FFF791FB00212F20FFF745FC10BDA9
:10212000536D617274204375727461696E000000B2
:10213000D6C7C4DCB4B0C1B1BFD8D6C6CFB5CDB355
:10214000000000004B31205069636B206D6F6465A7
:102150000000000000B587B0012144F20400FFF741
:1021600069FC4FF40070ADF8180003208DF81A00D8
:1021700018208DF81B0006A91D48FEF769FA4FF4D8
:102180008060ADF8180004208DF81B0006A91848DF
:10219000FEF75EFA25208DF8040003208DF8050077
:1021A0008DF8060001208DF8070001A8FFF708F957
:1021B0004FF4E13002900020ADF80C00ADF80E00B5
:1021C000ADF81000ADF814000C20ADF8120002A913
:1021D000084800F0F9F8012240F22551054800F0C6
:1021E000CDF80121034800F086F807B000BD0000DB
:1021F00000080140003801400C480078A8B10C48A4
:10220000007820280CD10A484078222808D10848B4
:102210008078662803D10648C078412800D000BFE6
:102220000020024908700349087070474D000020E3
:102230004E0000204C00002010B540F225512048EF
:1022400000F072F800283AD040F225511C4800F006
:1022500043F81C480078002831D0194800F020F9D4
:102260001949087008460178154800F01EF917480A
:10227000007888B91448007850B1134801781348A1
:1022800002780078401C114B18701148815402E00C
:1022900000200E4908700AE00B4801780B480278CC
:1022A0000078401C094B18700948815400BF00BFDA
:1022B00006480078042802DB01200649087010BD9A
:1022C0000038014057000020560000204C0000203C
:1022D0004E0000204D00002010B50022002340F6E3
:1022E0006A14A14200D100BF0A1201249440A3B293
:1022F000DC43048010BD21B1828942F40052828106
:1023000004E082894DF6FF731A40828170470246CD
:102310000020B1F5007F00D100BF13880B400BB146
:10232000012000E00020704770B502460024002321
:102330000025002040F66A16B14200D100BFC1F36B
:10234000421501F01F03012606FA03F3012D02D105
:102350009689334006E0022D02D1168A334001E00F
:10236000968A33400C12012606FA04F4168834408B
:1023700013B10CB1012000E0002070BDF0B50346A0
:10238000002400260025002040F66A17B94200D13B
:1023900000BF1846C1F3421401F01F06012707FAD7
:1023A00006F5012C01D10C3004E0022C01D11030D3
:1023B00000E014301AB107682F43076002E0076895
:1023C000AF430760F0BD00002DE9F04786B0054639
:1023D0000E460024A24600BFA1460027B08900B1E6
:1023E00000BF2F462C8A4CF6FF700440F08804434F
:1023F0002C82AC894EF6F3100440B0883189084332
:10240000718908430443AC81AC8A4FF6FF40044015
:10241000B0890443AC8201A8FFF71CFB1F48874228
:1024200002D1DDF810A001E0DDF80CA0A88900F4CD
:10243000004040B10AEBCA0000EB0A1031684900C5
:10244000B0FBF1F807E00AEBCA0000EB0A103168B4
:102450008900B0FBF1F86420B8FBF0F0040120091A
:10246000642101FB1089A88900F4004040B13220AA
:1024700000EBC900B0FBF1F000F00700044308E0F6
:10248000322000EB09106421B0FBF1F000F00F00E6
:1024900004432C8106B0BDE8F087000000380140FD
:1024A00001468888C0F308007047C1F308028280A3
:1024B000704700BFFEE7000070B501250024FEF75D
:1024C000B7FF102322A200211846FFF7EFF91023CF
:1024D00023A206210020FFF7E9F9102323A20321FC
:1024E0000020FFF7E3F94FF4FF7224492448FEF778
:1024F00050F8224800880B2806D1102321A206217B
:102500004E20FFF7D3F909E01C480088162805D1B2
:1025100010231EA206214E20FFF7C8F900201D49F6
:10252000087011E00020FEF77BF90446012C0BD067
:10253000022C09D0032C07D0042C05D10120154909
:1025400008700025FEF774FF002DEBD170BD000070
:10255000D3EFD2F4D6C7C4DCC4A3CABD00000000C8
:10256000B4B0C1B1D7B4CCAC3A000000D0A1B4B47F
:10257000CEAAC4FAB7FECEF121000000600100200F
:1025800000C00008D2D1B4F2BFAA0000D2D1B9D89D
:10259000B1D50000570000200FB4054B10B503A9BA
:1025A000044A029800F02CF810BC5DF814FB0000FF
:1025B0006D2A00085C0000200FB4084B10B504A978
:1025C00002AA039800F01CF8044602A9002000F0BB
:1025D00048FA204610BC5DF814FB0000632A00088E
:1025E00002E008C8121F08C1002AFAD170477047DC
:1025F000002001E001C1121F002AFBD1704700003A
:102600002DE9FF4F8DB00F460546002606E0252830
:102610000BD0DDE90F1290476D1C761C287800283E
:10262000F5D111B03046BDE8F08F0024A246A14696
:102630000122EC4900E0044315F8013F203B02FA77
:1026400003F00842F7D128782A2810D06FF02F0223
:102650002878A0F13001092914D80AEB8A0102EB8D
:10266000410144F0020400EB010A6D1CF0E701CFC8
:102670005FEA000A03D544F40054CAF1000A44F0AA
:1026800002046D1C28782E2817D115F8010F44F08C
:1026900004042A280ED06FF02F022878A0F1300110
:1026A00009290AD809EB890102EB410100EB010974
:1026B0006D1CF2E757F8049B6D1C28786C280FD02E
:1026C00006DC4C2817D068280DD06A2814D104E005
:1026D000742810D07A280FD10DE044F400140AE0D9
:1026E00044F4801401E044F440146978814202D13A
:1026F00004F580146D1C6D1C2A786E2A1FD00CDC2A
:10270000632A31D004DC002A8BD0582A11D1A3E0EF
:10271000642A68D0692A0CD165E0732A2ED004DCC3
:102720006F2A73D0702A04D19BE0752A6FD0782A63
:102730006ED01046DDE90F129047761C50E1C4F3CD
:102740000250022806D0032809D0042801CF09D05E
:10275000066045E101CFF117C0E9006140E101CF1A
:1027600006803DE106703BE117F8040B8DF8000090
:1027700000208DF80100EB46012003E057F804BB70
:102780004FF0FF3061074FF0000102D40DE008F177
:102790000101884649450FDA8045F8DB1BF808102F
:1027A0000029F4D108E008F1010188468142FADBF2
:1027B0001BF808100029F6D1DDE90F23AAEB080069
:1027C0008146214600F036F9304400EB080604E06B
:1027D000DDE90F121BF8010B9047B8F10108F7D2A1
:1027E00021464846F7E00A21C4F302534FF0000B9C
:1027F0000891022B04D001CFC117032B09D00AE0A6
:10280000FF1D27F00707F7E8020108E032E01FE0AC
:1028100020E000B2C117042B01D140B2C117031E42
:1028200071F1000307DA4FF0000CD0EB0C006CEBF9
:1028300001012D2302E0230504D52B238DF824303C
:10284000012303E0E30701D02023F7E7984658E08F
:102850000A2110E010210EE010204FF0000B08902C
:102860000CE010214FF0000B44F004044FF0080975
:10287000089103E008214FF0000B0891C4F30253C4
:10288000022B04D001CF0021032B06D006E0FF1D50
:1028900027F00707F7E8020103E080B2042B00D11C
:1028A000C0B24FF0000823072BD5702A07D0DDF8FF
:1028B00020C08CF0100C5CEA0B0C05D00EE040231D
:1028C0008DF82430012308E050EA010306D03023BC
:1028D0008DF824308DF8252002239846DDF820C09D
:1028E0008CF0080C5CEA0B0C0BD150EA010301D10F
:1028F000630706D530238DF824304FF00108A9F185
:102900000109582A04D038A20B9208AA0A920BE0B7
:102910003AA2F9E75B46089AFDF7A6FC0B9B9B5C85
:102920000A9A521E0A92137050EA0102F2D10A98D2
:10293000ADEB000000F1200B600702D524F48034D9
:1029400001E04FF00109D94502DDA9EB0B0000E0E1
:10295000002000EB0B0141440890AAEB010AE003C0
:1029600006D4DDE90F232146504600F063F8064403
:102970004FF0000908E009A911F80900DDE90F127C
:10298000904709F10109761CC145F4DBE0030CD541
:10299000DDE90F232146504600F04CF8064404E0E0
:1029A000DDE90F1230209047761C0899481E0890E8
:1029B0000029F5DC08E00A980A990078491C0A9178
:1029C000DDE90F129047761CBBF10001ABF1010B62
:1029D000F1DC21465046DDE90F2300F019F80644EA
:1029E0006D1C1BE60928010030313233343536378F
:1029F000383961626364656600000000303132334B
:102A000034353637383941424344454600000000EA
:102A10002DE9F041044600251E461746880404D4DB
:102A200005E039462020B0476D1C641EF9D52846C4
:102A3000BDE8F0812DE9F041044600251E46904690
:102A4000C80301D5302700E02027880404D505E01D
:102A500041463846B0476D1C641EF9D52846BDE88E
:102A6000F0810A68531C0B601070704770B5044603
:102A70000D46E1B20548FFF718FD00BF40210348AD
:102A8000FFF745FC0028F9D0204670BD0038014012
:102A900010B54FF400600B49086000F023F84FF4C4
:102AA00080600849091F086000F01CF84FF480603E
:102AB0000449086000F016F84FF400600149091F4E
:102AC000086010BD140C014070B5044600F07CF89D
:102AD000204600F04BF800F0A3F8054600F08EF811
:102AE000284670BD002001E0411CC8B20A28FBDB6B
:102AF0007047000010B54FF4006009490860FFF707
:102B0000F1FF4FF4806006490860FFF7EBFF4FF4D8
:102B100080600349091D0860FFF7E4FF10BD000055
:102B2000100C014070B50024002518E06006040E6A
:102B30004FF480600C490860FFF7D4FF0A4808385A
:102B4000006800F4006008B1601CC4B24FF48060FB
:102B50000549091D0860FFF7C5FF681CC5B2082DAF
:102B6000E4DB204670BD0000100C014070B5044647
:102B7000002524E004F0800020B14FF400601149EA
:102B8000086004E04FF400600E49091D0860FFF77B
:102B9000A9FF4FF480600B490860FFF7A3FF4FF4D3
:102BA00080600849091D0860072D02D14000091FF7
:102BB00008606006040EFFF795FF681CC5B2082D7B
:102BC000D8DB70BD100C014010B54FF400600A490D
:102BD000086040100860FFF785FF4FF40060064969
:102BE000091D0860FFF77EFF4FF480600249091D50
:102BF0000860FFF777FF10BD100C014010B54FF4CF
:102C00000060064908604010091F0860FFF76AFF6E
:102C10004FF400600149091F086010BD140C014009
:102C200010B54FF400600E490860FFF75BFF4FF4EA
:102C300080600B490860FFF755FF094808380068B5
:102C400000F4006008B1012400E000244FF480602B
:102C50000349091D0860FFF745FF204610BD00002D
:102C6000100C0140FDF7E0FBFFF774FAFDF788FD5B
:102C7000FEF7C0FCFFF7D8F8FDF7A8FBFEF7D8FB7E
:102C800000212E20FEF790FE00212720FEF78CFE6B
:102C900000210846FEF788FE00210846FEF784FE64
:102CA00000210720FEF780FE00210420FEF77CFEB5
:102CB00000210846FEF778FE0021FF20FEF774FE93
:102CC000FFF7DCF900212F20FEF76EFE4FF4FF72B4
:102CD0000F491048FDF75DFC18E00020FDF7A0FD4E
:102CE0000D49088008460088012802D1FEF74AFAFB
:102CF0000CE009480088022802D1FFF7EDF905E051
:102D000005480088032801D1FFF7F0F9E5E7000046
:102D10006001002000C00008000000202DE9F04103
:102D200005460E460024AD01A04619E0002713E039
:102D300000240EE0012E04D10B49085DFEF7C8FF08
:102D400003E00A49085DFEF7C3FF0220FDF78EFB92
:102D5000641C082CEEDB7F1C082FE9DB08F101085E
:102D6000A845E3DBBDE8F0813C00002044000020E2
:102D70000000000000000000000000000000000053
:102D8000000000F800000000000000330000000018
:102D900000100C02100C02000000000000000000F7
:102DA0000040C07840C0780000043F04043F0400A5
:102DB00000708888FC08300000182020FF211E00C9
:102DC000F008F0806018000000310C031E211E0086
:102DD00000F00888700000001E21232C1927211004
:102DE00000120E00000000000000000000000000C3
:102DF000000000E018040200000000071820400056
:102E000000020418E0000000004020180700000045
:102E1000404080F0804040000202010F01020200A9
:102E200000000000E0000000000101010F010101AD
:102E30000000000000000000009070000000000092
:102E4000000000000000000000010101010101007C
:102E50000000000000000000003030000000000012
:102E600000000000C03804000060180700000000E7
:102E700000E010080810E000000F102020100F00E4
:102E800000001010F8000000000020203F2020006B
:102E9000007008080808F0000030282422213000C3
:102EA00000300808088870000018202121221C002A
:102EB0000000804030F8000000060524243F242450
:102EC00000F88888880808000019202020110E00CA
:102ED00000E0108888900000000F112020201F00C3
:102EE00000180808886818000000003E0100000073
:102EF0000070880808887000001C222121221C0014
:102F000000F008080810E0000001122222110F0052
:102F1000000000C0C00000000000003030000000D1
:102F20000000008000000000000000E00000000041
:102F3000000080402010080000010204081020005A
:102F400000404040404040000002020202020200F5
:102F5000000810204080000000201008040201003A
:102F6000007048080888700000000030370000003A
:102F7000C030C828E810E000071827282F281700BD
:102F80000000C038E0000000203C23020227382067
:102F900008F8888888700000203F202020110E004B
:102FA000C030080808083800071820202010080042
:102FB00008F808080810E000203F202020100F002B
:102FC00008F88888E8081000203F202023201800F7
:102FD00008F88888E8081000203F2000030000005F
:102FE000C03008080838000007182020221E020000
:102FF00008F808000008F808203F210101213F20BF
:10300000000808F8080800000020203F20200000E9
:1030100000000808F8080800C08080807F000000D9
:1030200008F888C028180800203F20012638200012
:1030300008F8080000000000203F20202020300079
:1030400008F8F800F8F80800203F013E013F200092
:1030500008F830C00008F808203F200007183F009B
:10306000E01008080810E0000F10202020100F00CA
:1030700008F808080808F000203F210101010000BD
:10308000E01008080810E0000F10282830504F000A
:1030900008F8888888887000203F2000030C3020C2
:1030A00000708808080838000038202121221C0000
:1030B000180808F8080818000000203F2000000049
:1030C00008F808000008F808001F202020201F0032
:1030D0000878880000C83808000007380E01000092
:1030E00008F800F800F8080000033E013E03000065
:1030F000081868808068180820302C03032C3020C2
:103100000838C800C83808000000203F2000000030
:1031100010080808C8380800203826212020180088
:10312000000000FE020202000000007F404040005C
:10313000000438C000000000000000010638C00094
:1031400000020202FE000000004040407F0000003C
:103150000000040202040000000000000000000063
:10316000000000000000000080808080808080805F
:103170000002020400000000000000000000000047
:10318000000080808000000000192424123F2000ED
:1031900010F0008080000000003F112020110E0080
:1031A0000000008080800000000E1120202011000F
:1031B000000080808090F000001F202020103F2021
:1031C0000000808080800000001F24242424170039
:1031D000008080E0909020000020203F2020000010
:1031E0000000808080808000006B94949493600045
:1031F00010F0008080800000203F210000203F2050
:1032000000809898000000000020203F202000004F
:10321000000000809898000000C08080807F00003F
:1032200010F0000080808000203F2406293020001C
:10323000001010F8000000000020203F20200000B7
:103240008080808080808000203F20003F20003FE1
:103250008080008080800000203F210000203F20EF
:103260000000808080800000001F202020201F00A0
:10327000808000808000000080FF912020110E00DF
:103280000000008080008000000E11202091FF804F
:10329000808080008080800020203F21200001006D
:1032A00000008080808080000033242424241900C2
:1032B000008080E0808000000000001F20201000BF
:1032C0008080000000808000001F202020103F2010
:1032D000808080008080800000030C300C030000A0
:1032E0008080008080008080010E300C073806014D
:1032F00000808080008080000020310E2E31200070
:10330000808080000080808000818678180601001F
:1033100000808080808080000021302C22213000BD
:103320000000000000FC020200000000013E4040DE
:1033300000000000FF00000000000000FF0000008F
:103340000202FC000000000040403E0100000000BE
:103350000002010202040200000000000000000060
:103360002010FC03404444FC4242400000000F0097
:103370000008080F0808000020A49297EA8A8A969D
:103380009220200000080403000008080700000045
:10339000404040404040404040404000000000006D
:1033A0000000000000000000000404040404040401
:1033B00004040000040404040404040404040400D9
:1033C000000242424242424242020000080808080B
:1033D000080808080808080000FE02827E02027E33
:1033E0008282FE00000F05040404040404040F009C
:1033F000022222E23E222222E202000008080E09F6
:10340000080808080F080800101010D011161050F6
:1034100090101000080403000000000000030C00DE
:1034200020202020FF1010101010100000000000BD
:103430000708080808080E00000000FE0000007FD2
:1034400080000000080403000000000001060800DE
:10345000080808FF080808F8000000000804030036
:103460000000000708080E002020202020FF202058
:103470002020200000000000000F000000000000DD
:103480002010FC03404444FC4242400000000F0076
:103490000008080F0808000020A49297EA8A8A967C
:1034A0009220200000080403000008080700000024
:1034B000404040404040404040404000000000004C
:1034C00000000000000000000004040404040404E0
:1034D00004040000040404040404040404040400B8
:1034E00000024242424242424202000008080808EA
:1034F000080808080808080000FE02827E02027E12
:103500008282FE00000F05040404040404040F007A
:10351000022222E23E222222E202000008080E09D4
:10352000080808080F080800101010D011161050D5
:1035300090101000080403000000000000030C00BD
:1035400020202020FF10101010101000000000009C
:103550000708080808080E00000000FE0000007FB1
:1035600080000000080403000000000001060800BD
:10357000080808FF080808F8000000000804030015
:103580000000000708080E002020202020FF202037
:103590002020200000000000000F000000000000BC
:1035A000000000000000000000000000000000001B
:1035B0000000D4DA080888C8380C0B0808E80808A6
:1035C00008080800020100FF40414141417F41419C
:1035D00041414000D2AA0002F29292FE929292FEE3
:1035E0009292F2020000000282929A566322324ABC
:1035F000464282020000CAC70000007F494949498B
:103600004949497F000000008141211D214181FF7E
:103610008989898989818100B7F1000282824222E9
:1036200012FA0622224242820000010100FC4444B8
:103630004445444444FC00000100A1FA808080809D
:103640008080808090A0E0C0C080800000000000EA
:10365000000000000402030101000000D6D8101091
:1036600014D4545454FC525252D3121010004040FF
:1036700050575555557F5555555750404000CFB57B
:10368000000022322AA6A262211109810100000055
:10369000004222130B42827E02020A1223460000DD
:1036A000CDB32030AC63300088C8A8998E88A8C8F4
:1036B000880022672212128040300F00003F4040F5
:1036C0007100C9E8404042CC0040A09E8282829EA8
:1036D000A02020000000003F908840432C10284686
:1036E00041808000D6C3001715D55557557D5557D5
:1036F00055D5151700004040407F55555555555537
:10370000557F40404000D0A1000000E0000000FFD5
:103710000000002040800000080403000040807F7B
:103720000000000000010E00B4B44020D04C43441F
:10373000C8102000F80000FF000000003F4044488F
:10374000474070000F40807F0000CEAA0020222C4E
:103750002020E03F20202020E000000080402010BA
:1037600008060100014680403F000000C4FA201016
:1037700008FC2310886704F40424548C00004030B3
:103780000077808188B2848380E000116000B7FEFA
:103790000000FE222222FE00FE828292A29E0000F3
:1037A00080601F0242827F00FF402F102C43800068
:1037B000CEF1000090884C57A42454548C8400000F
:1037C000000001018042221A07024282423E0101AA
:1037D0000100D2D10000E28282828282828282FE55
:1037E0000000000000003F4040404040404040405A
:1037F00040780000D7B400083000FF20202020FFD0
:103800002020222C200004040201FF8040300E0101
:10381000061820408000CCAC000484844424548FDB
:103820001424448484040000413900003C40404298
:103830004C40407004093100A3BA000000000000B1
:10384000000000000000000000000000363600000C
:1038500000000000000000000000D4B6404042CC50
:10386000002022E22222E222222000000080403FAB
:1038700040A0988780809FA0A0BC8000B3CC242467
:10388000A4FE2322003E22222222223E000008061D
:1038900001FF0106404949497F4949494100CAD6CB
:1038A00000002424242424FC2222222322000000BD
:1038B000020202020242827F0202020202020200AD
:1038C000B6AF4044C4444444401010FF101010F000
:1038D0000000103C131014B840300E014080403FEF
:1038E0000000C4A31010D0FF9014E4AFA4A4A4AFB0
:1038F000E4040000040300FF00894B2A1A0E1A2A70
:103900004B888000CABD101090909090901010FFCE
:10391000101011161000002060203F10101000033E
:103920000C102040F800D6C7109453321E325210AB
:10393000007E4242427E0000000000FF49494949A2
:10394000494949FF00000000C4DC08CC4A49484A04
:10395000CC18007F88888482E00000FF1212529207
:103960007F00007E88888482E000BFD8101010FF9E
:103970009020984828090E2848A818000242817F04
:103980000040404242427E4242424000D6C6405041
:103990004E4848FF48484840F80000FF000000003B
:1039A0003E0202FF12221E000F40807F0000B4F290
:1039B000101010FF109004040404FC04040404001C
:1039C0000444827F0100000040807F00000000006E
:1039D000BFAA80828282FE8282828282FE8282826C
:1039E0008000008040300F0000000000FF00000059
:1039F0000000B9D800001011161010F010101413A8
:103A0000100000008181414121110D030D11214160
:103A100041818100B1D500F80122202222A2FA22A0
:103A2000222202FE000000FF0008040211201F00F5
:103A30000040807F0000B5E70000F888888888FF94
:103A400088888888F800000000001F080808087FA0
:103A5000888888889F80F000BBFA1010D0FF9010F3
:103A600000FE020202FE00000000040300FF0083CB
:103A7000601F0000003F40407800D5FD000202C2F8
:103A8000020202FE82828282820200004040407F67
:103A90004040407F4040404040404000D7AAC8B826
:103AA0008FE88888404848E85F4848484000081840
:103AB00008FF040400020B1222D20A060000B7B469
:103AC0000000FC2424E42424222222A3620000001B
:103AD00040308F80404023140814224140808000F1
:103AE000D7AAC8B88FE88888404848E85F4848485F
:103AF0004000081808FF040400020B1222D20A0634
:103B00000000B4B0100CC4544C64D54644444C542A
:103B1000C4140C000000FF40446255495543404026
:103B2000FF000000C1B1100C4424140405C60404B5
:103B3000142444140C0000003F01010101FF0101A5
:103B400011211F000000BFD8101010FF90209848CE
:103B500028090E2848A818000242817F00404042F0
:103B600042427E4242424000D6C640504E4848FF44
:103B700048484840F80000FF000000003E0202FFF5
:103B800012221E000F40807F0000CFB500002232BD
:103B90002AA6A2622111098101000000004222131D
:103BA0000B42827E02020A1223460000CDB320306F
:103BB000AC63300088C8A8998E88A8C8880022679E
:103BC0002212128040300F00003F40407100B2A826
:103BD0001060020CC000F8888888FF8888A8180048
:103BE00004047C0380601F80432C102846818000E1
:103BF000D0CE808282FE8282FE8282802010088661
:103C000060008040300F0000FF00008084422110DF
:103C10000C00D5FD000202C2020202FE82828282F4
:103C2000820200004040407F4040407F4040404092
:103C300040404000CFD202E222223E0008884839AC
:103C40000E08C8080800004382423E002171292561
:103C5000232128700000C8FD0004848484848484A7
:103C600084848484840400002020202020202020BC
:103C70002020202020202000BDC72010E824272459
:103C800024E424342C20E000000080601F0909098E
:103C9000097F090949897F000000B7BD08080808A5
:103CA00008F8898E888888880808080000804020E5
:103CB000180700004080403F00000000C6B5407C6F
:103CC000407F484840F2121AD61212F20200908E3B
:103CD000404F201E804F20180710204F8000C2CA7E
:103CE0000014A4442434AD6624940444A4140000B5
:103CF00008090808090909FD09090B08080908004D
:103D0000B7E500F000FF00F080904C57A4544C84BD
:103D10008000001F100F081F10101515FF1515103B
:103D200010003A0000000000000000000000000049
:103D30000000000000003636000000000000000017
:103D400000000000CEC21060028C0000FE92929231
:103D50009292FE00000004047E01407E42427E42B8
:103D60007E42427E4000B6C80000FC242424FC258C
:103D70002624FC242424040040308F80844C5525C4
:103D80002525554C80808000D6B5008060F807045A
:103D9000E4A4A4BFA4A4E4040000010000FF404088
:103DA0007F4A4A4A4A4A7F404000BEE0003E22E243
:103DB000223E00FE2222222222E20200203F201F79
:103DC0001111007F4444444444474000C0EB0404C4
:103DD00004F484D4A5A6A4D484F40404040000FE4E
:103DE0000202123A1613121A3242827E0000A1E633
:103DF000060909E6F80C040202020202041E000091
:103E0000000000071F3020404040404020100000CC
:103E1000B9E24040424458C0407F40C0504846400C
:103E200040008080402018070000003F4040404094
:103E30007800D5D500FE424242FE0042A29E82A2F8
:103E4000C2BE0000806F080828CF00002FC80808F5
:103E500028CF0000C7BF02E222223E00809E92923D
:103E6000F292929E8000004382423E404744444486
:103E70007F444454E700B6C80000FC242424FC25F9
:103E80002624FC242424040040308F80844C5525B3
:103E90002525554C80808000C1A200101090101084
:103EA0001116101010D01010000040404040435C2C
:103EB0004040504C434040404000B5C21088C4339D
:103EC00004F49494F49FF49494F404000100FF002B
:103ED0004232027282869A82E20A3200CAF7109057
:103EE000FF901024C404FC00901010FF1000060185
:103EF000FF0021100C031C000043807F0000C8CB92
:103F0000000000000000C03FC000000000000000F2
:103F1000804020100C03000000030C1020408000A3
:103F2000A1A200000000000000000000000000004E
:103F3000000000000408183000000000000000002D
:103F40000000B5C21088C43304F49494F49FF49430
:103F500094F404000100FF004232027282869A82C9
:103F6000E20A3200BCBC101010FF1090088888884C
:103F7000FF88888808000444827F01808040432CA9
:103F8000102846818000B2A200101011F610101007
:103F90001010F41310100000028242320F020202CD
:103FA0000202FF0202020200D0DE4020F807F0A069
:103FB000904C5724A4544C8080000000FF001F80C8
:103FC00092524929241208000000C8CE008060F8EF
:103FD0008780848484FE828382808000010000FFC9
:103FE00000404040407F404040400000CEF1000093
:103FF00090884C57A42454548C8400000000010184
:104000008042221A07024282423E01010100D2BBD5
:104010008080808080808080808080808080800020
:104020000000000000000000000000000000000090
:10403000B6FE000008080808080808080808080074
:104040000000101010101010101010101010101090
:104050001000C8FD0004848484848484848484845F
:104060008404000020202020202020202020202048
:1040700020202000CBC400FC040404FC040404FC45
:10408000040404FC0000007F282423202020202199
:104090002222227F0000CEE50002424242C27E423E
:1040A000424242C202020000404040407847404045
:1040B0004040407F40404000C1F920202020202087
:1040C00021222C20202020202000004020100C0342
:1040D00000000001020418600000C6DF80808080BC
:1040E0008040FF40404020202020000000000000D1
:1040F00000003F404040404040780000B0CB00000E
:10410000000000FC0000007E800000000000008035
:104110006018070000000000030C30408000BEC59E
:104120000010101010FF10101010F0000000000020
:10413000804020180700000000003F404040780009
:10414000CAAE40404040404040FF404040404040B8
:10415000400000000000000000FF00000000000020
:104160000000B5DA08049392969A92FA9493929684
:10417000FA0202004040472424140CFF04042444A3
:10418000241C0000D2BB8080808080808080808062
:10419000808080808000000000000000000000009F
:1041A000000000000000C4A31010D0FF9014E4AF82
:1041B000A4A4A4AFE4040000040300FF00894B2A78
:1041C0001A0E1A2A4B888000BFE9202020FF2020E9
:1041D000080808FF080808F800001030100F884889
:1041E00021110D030D1121418100B0D90202E222FB
:1041F00022322A2622222222E20202000000FF426C
:104200004242424242424242FF000000BFC62424D2
:10421000A4FEA3220022CC0000FF0000000008063C
:1042200001FF00010404040404FF02020200C8D9D3
:10423000846424242F2424A424242F2424A464006C
:1042400040422222120A06FF060A1222224240009F
:10425000B4B44020D04C4344C8102000F80000FF04
:10426000000000003F404448474070000F40807FFE
:104270000000CFD4000000FE92929292929292FEA1
:104280000000000040424458407F4040407F405082
:1042900048464000CABE40404242424242C24242B8
:1042A000424242404000201008060040807F00004B
:1042B000000204083000CAB5100C0484146405061A
:1042C000F404040404140C00048484444724140CEF
:1042D000070C142444840400D1E902FA8282FE808F
:1042E0004020504C434C5020400008184884443F24
:1042F000404458414E6058474000B2E21060028C82
:1043000000FE02F202FE00F800FF000004047E013D
:104310008047300F10270047807F0000B9E24040FF
:10432000424458C0407F40C05048464040008080D2
:10433000402018070000003F404040407800C3F490
:1043400008F714549414F40480708F0808F80800D7
:104350001D13115599513F914120130C334080009A
:10436000B5E70000F888888888FF88888888F80082
:10437000000000001F080808087F888888889F8040
:10438000F000D7E800FE0222DA0600FE22222222F6
:10439000FE00000000FF08100847407F42424242F2
:1043A0007F404000BCEC1010D0FF905020504C4398
:1043B0004C5020404000040300FF00414458414E4F
:1043C000605847404000B2E21060028C00FE02F2EA
:1043D00002FE00F800FF000004047E018047300F59
:1043E00010270047807F0000BBFA1010D0FF90100C
:1043F00000FE020202FE00000000040300FF008332
:10440000601F0000003F40407800BFD8101010FF30
:104410009020984828090E2848A818000242817F59
:104420000040404242427E4242424000D6C6405096
:104430004E4848FF48484840F80000FF0000000090
:104440003E0202FF12221E000F40807F0000C2EBDE
:104450000484E45C44C40002F2828282FE80800014
:1044600002017F10103F00080808084888403F00FC
:10447000C5CC202020FC2426A52C342424FC20207C
:10448000200040427D44447C4445447D46457C4078
:104490004000D0A1000000E0000000FF000000206C
:1044A00040800000080403000040807F00000000FE
:1044B00000010E00B3B50008884828180FE8080866
:1044C00008080808000008080909090909FF09097E
:1044D000090909080800C8AB80804020504844C33F
:1044E0004448502040808000004040444444447F81
:1044F0004444444440400000D7D4000000F8888C75
:104500008A89888888F800000000000000FF444481
:104510004444444444FF00000000B6AF4044C44457
:104520004444401010FF101010F00000103C131015
:1045300014B840300E014080403F0000CAB5100C56
:10454000048414640506F404040404140C000484B4
:1045500084444724140C070C142444840400D1E937
:1045600002FA8282FE804020504C434C5020400092
:1045700008184884443F404458414E605847400022
:10458000BFAA80828282FE8282828282FE828282B0
:104590008000008040300F0000000000FF0000009D
:1045A0000000C6F4000000FC444444454644444432
:1045B000447C00004020180700FC44444444444428
:1045C00044FC0000CABC1010F01F10F00040E0587E
:1045D00047405060C0004022150816210000FE42EE
:1045E000424242FE0000CAB6404042CC000000FCFD
:1045F0000404040404FC00000000003F1088402371
:10460000190101091123C000B1F0003E22E222226B
:10461000223E0000F80000FF00008141310F41817F
:10462000413F00000F40807F0000D3EF4042CC00AC
:1046300000829292F29E9292F282800000007F208D
:104640001000FC4444444444FC000000D2F44040C8
:10465000444454644546446454444440400000008B
:1046600000FF49494949494949FF00000000D6D0A7
:104670000000F010101010FF10101010F0000000DB
:1046800000000F04040404FF040404040F000000ED
:10469000D6C7109453321E325210007E4242427EE0
:1046A0000000000000FF49494949494949FF00000D
:1046B0000000C4DC08CC4A49484ACC18007F8888EE
:1046C0008482E00000FF121252927F00007E8888F0
:1046D0008482E000B3B50008884828180FE808086D
:1046E00008080808000008080909090909FF09095C
:1046F000090909080800D7DB2030AC6330000C241E
:104700002425262424240C00226722121220110DB5
:1047100041817F0105093100BACF40402020504837
:1047200044434448502020404000000000FE4242E4
:104730004242424242FE00000000BFD8101010FF6B
:104740009020984828090E2848A818000242817F26
:104750000040404242427E4242424000D6C6405063
:104760004E4848FF48484840F80000FF000000005D
:104770003E0202FF12221E000F40807F0000D5D5AE
:1047800000FE424242FE0042A29E82A2C2BE000041
:10479000806F080828CF00002FC8080828CF000025
:1047A000B6C80000FC242424FC252624FC24242450
:1047B000040040308F80844C55252525554C808041
:1047C0008000B3AC40484848FF484842A29E82A2BD
:1047D000C2BE000080601F207F4444404F484848CC
:1047E000484F4000C9F90414D454545454DF54546D
:1047F0005454D414040080601F0202020203020217
:10480000020203000000B2A81060020CC000F88889
:104810008888FF8888A8180004047C0380601F80B3
:10482000432C102846818000BDE12030AC63201865
:10483000084848487F484848080022672212121258
:1048400000FE4242424242FE0000B9FB000000FE70
:10485000929292FE929292FE00000000444424251F
:10486000140C04FF040C142524444400C3C00004A9
:104870002424252624FC24262524240400008189C0
:1048800089494929190F1929494989898100BAC3D8
:104890001010F01F10F000808282E2928A86800061
:1048A000402215081661000040807F0000000000D3
:1048B000C9FA8040301E101010FF10101010101098
:1048C0000000404042424242427F42424242424015
:1048D0004000BBEE1060028C0020242424FE222322
:1048E0002220200004047E010000FE424243424296
:1048F000FE000000D0E300109092523212FE1231FE
:1049000051919010000001818040310F0101014D53
:104910008B4838010100C0F60202F2121212F202B4
:10492000F2121212F20202000000FF0146807F0024
:10493000FF0146807F000000C9BD0000F0000000BC
:1049400000FF00000000F000000000003F202020D9
:10495000203F202020207F000000BAD31060028C6E
:104960000004E42424E40404FC04040004047E01A0
:1049700000000F04040F40807F000000D7B74040C4
:1049800042CC0000FC2424262524243C00000040C6
:10499000201F20405F494949494949495F00D6F0F5
:1049A000404042CC002022924A36E242A21200004D
:1049B0000040201F2049494452615F404146400069
:1049C000C3CE404424147F94240024147F14244430
:1049D0004000008088844245291111090503000028
:1049E0000000CFEB00088868FF488800FE52525252
:1049F000FE000000403100003B4040445B424272F8
:104A000003083000D1EF101010FF10900042E25266
:104A10004AC64240C0000444827F0120108C4320DB
:104A2000184780403F00B7AB00F808FF08F800FEC9
:104A3000428202FE00000000000F00FF088F601F8E
:104A40000001003F40407800C6F4000000FC4444F0
:104A5000444546444444447C00004020180700FC80
:104A600044444444444444FC0000BABD80FC96E500
:104A700084FC0008C8494AC808080000807F024C2E
:104A8000807F80601F00003F40407800C6EB00043C
:104A900084844C54252624544C8484040000010151
:104AA00080601F0000000000FF0000010100CDB782
:104AB0000000106004180000FF000000000000006B
:104AC00081814141211109070105091121C101001D
:104AD000B2A200101011F61010101010F4131010E4
:104AE0000000028242320F0202020202FF020202B0
:104AF0000200BDF8404042CC00808888FF8888FFD3
:104B0000888880000040201F2040504C4340405F78
:104B100040404000B0D900000010101010101010DC
:104B200010101010F0F07010101010101010101065
:104B300010181000000000000000000000FCF80841
:104B40000808080C0B0808080808080808FCF80002
:104B500000000000000000000000000000FFFF084F
:104B600008080808080808080808080808FFFF00DF
:104B7000000000000000000000000000007F3F086F
:104B8000080808080808080808080808087F3F00FF
:104B9000000000000000BFC6000040404020202070
:104BA000E0E03010181800000080800000000000D5
:104BB000FCF8080000000000000010101010109019
:104BC000FFFF10101018100000C081070600000041
:104BD000FFFF0000000000000000804020180E03CE
:104BE000FFFF0103065E402020202123101010103B
:104BF000FFFF08080C0C000000010000000000008E
:104C00007F3F0000000000000000000000000000E6
:104C10007F3F000000000000C8D9000000808080B5
:104C20008080808080FCF8888080808080FCF8888C
:104C3000808080C0E0C08000000000000080C0F8DC
:104C4000101010101017171010F0F050101713104C
:104C5000101010D0F0381000000000000000020218
:104C600002020282C2623A1E06FFFF020E1262C2F6
:104C70008282020203030200000000001008080400
:104C80000602010100000000007F3F00000000005C
:104C9000010303060E0E04040000B4B4000000007B
:104CA000000000C0F03C18286040C08000000000F8
:104CB00000000000000000F8F80000000000804044
:104CC00030F8E6232020202020E0F0230702000017
:104CD00000FF0200000000FFFF00000000010000D4
:104CE00000FFFF0000002060603F1F000080000008
:104CF000007F0000000000FFFF0000000000000037
:104D000000073F303030303030303030383F100026
:104D1000000010103030703F1F0000003C4D0008B4
:104D20000000002060000000E02500089C4D000805
:104D30006000002000070000F025000800000000CF
:104D400001010100000000000000000000A24A0470
:104D5000000000000000000001020304060708092B
:104D60000000000001020304010203040607080911
:104D70000204060801010100080C040602030109EF
:104D80000901030206040C080000000000000000F6
:0C4D900000000000000000000000000017
:04000005080000ED02
:00000001FF
